S0100000504F56537469636B2E7372656321
S113000045C0000062C0000060C000005EC0000087
S11300105CC000005AC0000058C0000056C0000078
S113002054C0000052C0000050C000004EC0000088
S11300304CC000004AC0000048C0000046C0000098
S113004044C0000042C0000040C000003EC00000A8
S11300503CC000003AC0000038C0000036C00000B8
S113006034C0000032C0000030C000002EC00000C8
S11300702CC000002AC0000028C0000026C00000D8
S113008024C0000022C0000020C0000011241FBEB4
S1130090CFEFD0E1DEBFCDBF11E0A0E0B1E0ECEBEB
S11300A0FAE100E00BBF02C007900D92A631B10740
S11300B0D9F726E0A6E1B1E001C01D92A53BB20745
S11300C0E1F70E94D70A0C945C0D9ACFF894AF9391
S11300D0BF93DC01860F971F7D9177FB0EF410C050
S11300E00000959A000000000000000095980000B0
S11300F00000000000000000000076FB86F41FC032
S1130100959A0000000000000000000000000000BC
S1130110000000000000959876FB0EF410C000006B
S1130120959A00000000000000009598000000006F
S1130130000000000000000075FB86F41FC0959AC3
S113014000000000000000000000000000000000AB
S113015000000000959875FB0EF410C00000959AFD
S1130160000000000000000095980000000000005E
S113017000000000000074FB86F41FC0959A000084
S1130180000000000000000000000000000000006B
S11301900000959874FB0EF410C00000959A0000BE
S11301A0000000000000959800000000000000001E
S11301B00000000073FB86F41FC0959A0000000045
S11301C0000000000000000000000000000000002B
S11301D0959873FB0EF410C00000959A000000007F
S11301E000000000959800000000000000000000DE
S11301F0000072FB86F41FC0959A00000000000006
S113020000000000000000000000000000009598BD
S113021072FB0EF410C00000959A0000000000006C
S1130220000095980000000000000000000000009D
S113023071FB86F41FC0959A0000000000000000C6
S1130240000000000000000000000000959871FB11
S11302500EF410C00000959A000000000000000099
S1130260959800000000000000000000000070FBF2
S113027086F41EC0959A00000000000000000000F3
S113028000000000000000000000959870FB0EF4D0
S11302900FC00000959AA817B9077D919598B0F4FE
S11302A00000000000000000000077FF19CF28CFF5
S11302B0959AA817B9077D9100000000000030F45A
S11302C000000000959877FF0BCF1ACF9598BF9147
S11302D0AF918FEF8A95F1F778940895FC01AC0102
S11302E0455F5F4F90E080E8989F900111248191D1
S11302F09695980F920FE417F507A9F7892F08959B
S113030010921E0142E351E00C949F0C0895CF9289
S1130310DF92EF92FF920F931F93CF93DF9300919D
S1130320420310914303209144033091450306177F
S113033017072807390731F16B017C0180911E01F1
S1130340813041F410921E0142E351E0C901B80129
S11303500E949F0CCCE3D3E08E819F81A885B98550
S113036080931A0190931B01A0931C01B0931D016B
S113037042E351E0C701B6010E94DF0CCE82DF8266
S1130380E886F98681E0DF91CF911F910F91FF906C
S1130390EF90DF90CF900895CF92DF92EF92FF928B
S11303A00F931F93CF93DF936B017C01C42FD0E095
S11303B00AE111E0C701B6016D0F711D811D911D88
S11303C0A6DF30911601E2E3F1E080E090E02081C5
S11303D0222311F0253E89F43F5F3C130FC096950C
S11303E08795929582958F7089279F70892780932E
S11303F04C031092160181E00FC030E08096B09655
S1130400811522E0920719F730931601DF5FF80196
S11304108589D81778F280E0DF91CF911F910F91F1
S1130420FF90EF90DF90CF9008950F931F939B015F
S1130430AC012250310941095109EAE1F1E0A589F1
S1130440B0E00E94320D0585168527853089600F3E
S1130450711F821F931F1F910F9108950F931F9374
S1130460EAE1F1E00585168527853089601B710B6B
S1130470820B930B258930E040E050E00E94100D80
S1130480CA01B9016E5F7F4F8F4F9F4F1F910F912C
S113049008950F931F93ECE3F3E0DC01AA5BBE4FD6
S11304A04D915C9160E070E0BA0155274427DC016E
S11304B0A45BBE4F0D911C9120E030E0402B512BEA
S11304C0622B732B418B528B638B748BDC01A25B8D
S11304D0BE4F8D919D910D90BC91A02D82879387E5
S11304E0A487B5871F910F9108952F923F924F9241
S11304F05F926F927F928F929F92AF92BF92CF92B0
S1130500DF92EF92FF920F931F93CF93DF93CDB7B8
S1130510DEB765970FB6F894DEBF0FBECDBF6A8B0A
S11305207B8B8C8B9D8B3A018DE0E0E0F1E0DE016A
S1130530119601900D928A95E1F7FA01019000203D
S1130540E9F7E41BE250212CCE2ED12CE22C42E31D
S113055051E08A889B88AC88BD888E0C911CA11CB4
S1130560B11CC501B4010E94DF0C8091420390913B
S11305704303A0914403B0914503EAE1F1E0808391
S11305809183A283B3838092420390924303A09207
S11305904403B09245030F2EF2E34F2EF1E05F2E99
S11305A0F02D0BE010E0AE2C4801FBE08F1A91080F
S11305B05F864E86F2018081882309F4D7C086FFC6
S11305C00AC093859F3039F4853E09F44BC0F1E0AD
S11305D0F093190147C0EE85FF859385903119F09A
S11305E0903209F03FC0853EE9F1809119018230D3
S11305F0E9F1E12CF12CC401865E9E4F1C01198B9C
S1130600088B1F2DF101E10FF11DB08C90E2B9129E
S113061002C01F5F14C0F301EE0DF11D80818E3204
S113062021F4183070F0E3940AC090E00E944B0D5E
S11306302B2D30E02817390721F41F5FE3941B307A
S113064008F3F12E08891989EBE0FE120BC0EE16AF
S113065049F0F2E0F09319018E859F853FDE809387
S1130660180104C080911901813021F08091170193
S11306708823E9F1309117018CE0A401465E5E4FB6
S1130680E1E0F0E0EC0FFD1FE80FF11D9081FA01AD
S1130690E90FF11D908D2FEF290F2E3F78F4F6010D
S11306A0E31BF109E60DF71D2081921302C03F5FA1
S11306B005C0109219011092170146C0815000F72D
S11306C030931701C601831B9109019681F4EE85CD
S11306D0FF85808180FF0BC0F2E0F0931901109236
S11306E01701EE85FF8585858093180104C08091EC
S11306F01901823049F5F801E65EFE4F808D8F3096
S113070019F110921901C401C4DE96948794969449
S113071087949694879496948794969487948092D9
S11307204C038E859F85DADD9091180189130CC0E6
S1130730ECE3F3E086819781A085B185858B968B68
S1130740A78BB08F81E012C0F0E24F0E511C005E07
S11307501F4F0B3022E0120709F026CFEA2CE39456
S113076080912F01E81608F4F2CE80E065960FB66A
S1130770F894DEBF0FBECDBFDF91CF911F910F91D3
S1130780FF90EF90DF90CF90BF90AF909F908F90AD
S11307907F906F905F904F903F902F9008952F928D
S11307A03F925F926F927F928F929F92AF92BF928D
S11307B0CF92DF92EF92FF920F931F93CF93DF9329
S11307C000D000D0CDB7DEB79C838B83562E490171
S11307D05A016701780181E080931E0100914C0366
S11307E080E2089F80011124F801EE5CFE4FFA8339
S11307F0E983CF01459611928E179F07E1F769802F
S11308007A80312C10E06894222425F8F3012082A8
S1130810183070F5EB81FC81E30DF11D80818E327F
S113082051F190E00E944B0DF3018083339423C077
S11308303394EB81FC81E30DF11D8081882331F039
S113084090E00E944B0DF30180833394FFEF6F1A05
S11308507F0A1F5F1B30D1F6E981FA815386B58A7E
S1130860A48A938E828EC48ED58EE68EF78E06C0B1
S11308701830F9F6DDCF183049F7DACF0F900F9022
S11308800F900F90DF91CF911F910F91FF90EF90F8
S1130890DF90CF90BF90AF909F908F907F906F909C
S11308A05F903F902F900895CF92DF92EF92FF9246
S11308B00F931F9320913001203181F56B017C014E
S11308C0CC0CDD1CEE1CFF1CB701A601032E39E085
S11308D076956795579547953A95D1F7302D809140
S11308E02B0190912C01A0912D01B0912E018A0130
S11308F09B01080F191F2A1F3B1FC901B80107DDFF
S113090011E0D122EE24FF24C6014896FC01E65EE4
S1130910FE4F6081718180E090E033C06B017C0107
S1130920CC0CDD1CEE1CFF1CCC0CDD1CEE1CFF1CD7
S1130930B701A601032E39E076956795579547953B
S11309403A95D1F7302D80912B0190912C01A091F3
S11309502D01B0912E018A019B01080F191F2A1F36
S11309603B1FC901B801D3DC11E0D122EE24FF24DE
S1130970C6014896FC01E65EFE4F6081718182816A
S113098093811F910F91FF90EF90DF90CF90089586
S1130990CF92DF92EF92FF920F931F93CF93DF9347
S11309A08C01C0901F01D0902001E0902101F090B3
S11309B02201C114D104E104F10421F58091300134
S11309C08031C1F4F12CCAE1D1E089859A85AB85E7
S11309D0BC85BC01CD016F0D711D811D911DA80148
S11309E084DD8130B1F18D89F80E8FE18F1568F7C0
S11309F080E02FC0C0902301D0902401E090250115
S1130A00F0902601CAE1D1E00CC0C701B6010DDDAA
S1130A10A8016BDD8130E9F0C701B60145DF6B0148
S1130A207C0188EFC8168FEFD806E8068FE0F80639
S1130A3018F08E89803261F088EFC8168FEFD806DF
S1130A40E104F10410F38E898031F9F680E001C0ED
S1130A5080E0DF91CF911F910F91FF90EF90DF9095
S1130A60CF9008952F923F924F925F926F927F9210
S1130A708F929F92AF92BF92CF92DF92EF92FF92AA
S1130A800F931F93CF93DF931B012C01CEDCE2E382
S1130A90F3E0608371838283938380912F0190E0DC
S1130AA09583848372016101C0E0D0E08F010F2E31
S1130AB0FAE16F2EF1E07F2EF02DC701B601F4DECE
S1130AC0460157012FEF821A920AA20AB20A681548
S1130AD079058A059B05A1F4F3012589F801448170
S1130AE05581FA01E20FF11D9F01F801358324833A
S1130AF021966B017C01C115F1E0DF07F1F609C015
S1130B00C0923803D0923903E0923A03F0923B0347
S1130B100EC0520141012FEF921AA20AB20A80922A
S1130B20380390923903A0923A03B0923B03DF91C9
S1130B30CF911F910F91FF90EF90DF90CF90BF90D6
S1130B40AF909F908F907F906F905F904F903F9069
S1130B502F9008958F929F92AF92BF92CF92DF927F
S1130B60EF92FF920F931F93CF93DF934B015C019E
S1130B7005C08FEF881A980AA80AB80AC501B401FB
S1130B8093DE672B682B692BA1F7C501B4014DDCFB
S1130B90E2E3F3E0608371838283938380912F0186
S1130BA090E09583848375016401EFEFCE1ADE0A29
S1130BB0EE0AFE0AFFEF9F1AAF0ABF0AC2E3D3E0B0
S1130BC00AE111E0C701B6016FDE672B682B692BC0
S1130BD091F4F80125898C819D81820F911D9D835B
S1130BE08C83FFEFCF1ADF0AEF0AFF0AC814D90477
S1130BF0EA04FB0439F7DF91CF911F910F91FF9025
S1130C00EF90DF90CF90BF90AF909F908F9008951A
S1130C108F929F92AF92BF92CF92DF92EF92FF9208
S1130C200F931F9349015A0120913001203171F52E
S1130C306B017C01CC0CDD1CEE1CFF1CB701A60172
S1130C40032E39E076956795579547953A95D1F7F0
S1130C50302D80912B0190912C01A0912D01B09108
S1130C602E018A019B01080F191F2A1F3B1FC9016E
S1130C70B8014DDB11E0D122EE24FF24C6014896D1
S1130C80FC01E65EFE4F9182808233C06B017C01E1
S1130C90CC0CDD1CEE1CFF1CCC0CDD1CEE1CFF1C64
S1130CA0B701A601032E39E07695679557954795C8
S1130CB03A95D1F7302D80912B0190912C01A09180
S1130CC02D01B0912E018A019B01080F191F2A1FC3
S1130CD03B1FC901B8011BDB11E0D122EE24FF2424
S1130CE0C6014896FC01E65EFE4F80829182A28294
S1130CF0B38281E080931E011F910F91FF90EF90CA
S1130D00DF90CF90BF90AF909F908F9008952F92D7
S1130D103F924F925F926F927F928F929F92AF9287
S1130D20BF92CF92DF92EF92FF920F931F93CF93D4
S1130D30DF93CDB7DEB765970FB6F894DEBF0FBE6D
S1130D40CDBF5C01C62EFC0101900020E9F731976C
S1130D50E81BF90B8FE4E89F812D11248695869575
S1130D601E2F0DE0809F10191124111108C01FE4DB
S1130D70E19F112D1124169516951F5F07C01FE4DE
S1130D80E19F112D1124169516951E5F60911F0188
S1130D907091200180912101909122016E877F87BB
S1130DA0888B998B672B682B692B69F4EAE1F1E056
S1130DB081859285A385B4858E879F87A88BB98BFF
S1130DC08689803169F00F2EFCE3EF2EF3E0FF2ECD
S1130DD0F02D0F2EFAE18F2EF1E09F2EF02D24C07E
S1130DE000E00F2EFAE1EF2EF1E0FF2EF02D412F5F
S1130DF06E857F8588899989600F711D811D911D7C
S1130E00CBDA813009F4D6C0D70155968C91080FFE
S1130E10003268F3CFC06E877F87888B998B04C0BC
S1130E206E877F87888B998B6E857F858889998962
S1130E30FCDA412FB1DA813009F4BCC0F7014680F5
S1130E405780608471846E857F85888999892CDDBB
S1130E50683FFFEF7F078F07FFE09F0728F0D4016B
S1130E6056962C91203251F0683FBFEF7B078105E5
S1130E70910588F2F4012689203191F660913203BC
S1130E80709133038091340390913503E7DA6A8BD0
S1130E907B8B8C8B9D8B9B01AC016E857F858889B8
S1130EA09989B6DE2FEF3FEF4FEF5FE06A897B89C8
S1130EB08C899D89ADDE60914203709143038091DA
S1130EC044039091450342E351E039D5E2E3F3E072
S1130ED082E391E012928E179F07E1F7912C0F2E77
S1130EE0F2E3EF2EF3E0FF2EF02D0F2EFAE12F2E7A
S1130EF0F1E03F2EF02D01C0992EF7018081918100
S1130F00A281B381BC01CD01690D711D811D911DAB
S1130F10F7D991E0990DD10155968C91981660F30B
S1130F200F2EF2E3EF2EF3E0FF2EF02DD7016D919B
S1130F307D918D919C916A8B7B8B8C8B9D8B609327
S1130F404203709343038093440390934503C30186
S1130F50B20184DAF7016683778380879187412F12
S1130F606A897B898C899D8917DAD70114968D91BA
S1130F709C91159740912F01242F30E028173907B1
S1130F80A0F4F70140805180628073808301720174
S1130F90E40EF11C011D111DE082F1820283138312
S1130FA0821B930B9583848305C06E857F85888916
S1130FB09989D0DD0F2EFCE38F2EF3E09F2EF02DC8
S1130FC0F40186819781A085B185858B968BA78B4B
S1130FD0B08F02E313E0D8016D917D918D919C91C6
S1130FE03DDA9B01AC01F401618B728B838B948B92
S1130FF0D80116966D937D938D939C9319971286C1
S1131000138614861586E12CF12C87016C2DC501FD
S1131010C6DB8DE0E0E0F1E0DE01119601900D9277
S11310208A95E1F7F50101900020E9F73197CE2E7A
S1131030CA1881E080931E01D4015096EC90B0E26E
S1131040EB9E70011124C7018E5C9E4F47D9782E08
S1131050E114F10469F460911A0170911B0180910B
S11310601C0190911D0153D9E12C6894FF24F1F8DF
S1131070C11004C064C00F5F790110C002E010E029
S11310800F2EFFE06F2EF02D0F2EFAE18F2EF1E0E0
S11310909F2EF02D412C6894552451F8970120522D
S11310A03109F901E65EFE4F8FEF800F808FF70163
S11310B0E65EFE4F638214827582128A138A8981E6
S11310C0F901E80FF11DD501A10FB11D8C91E65E68
S11310D0FE4F808F118E41E0410FFE013296135F67
S11310E0DD24D39414C081917901E80EF11CD5015B
S11310F0A40FB11D5C91D701A65EBE4F58965C93B8
S1131100589759961C924F5FD394411719F04C1578
S113111050F34EC02115310571F41C1518F0E12C63
S1131120F12C0DC0D4016D917D918D919C91EFD8DE
S1131130242D352DA0CF1C1508F49DCF7901F7017E
S1131140E65EFE4F808D8064808FBCE0BD15C0F0EC
S113115080E02FEFE1E0F0E0EC0FFD1FED0DF11D5D
S11311609081F701E90FF11DE65EFE4F808F818FBC
S1131170EAE0ED1508F0822FD394FDE0DF12EACF08
S11311800CE313E0D80116966D917D918D919C919D
S11311901997B6D88091320390913303A091340308
S11311A0B0913503F80186839783A087B18706C081
S11311B02115310509F4B3CF142FBDCF65960FB6B1
S11311C0F894DEBF0FBECDBFDF91CF911F910F9179
S11311D0FF90EF90DF90CF90BF90AF909F908F9053
S11311E07F906F905F904F903F902F9008958F92D3
S11311F09F92AF92BF92CF92DF92EF92FF92CF93E2
S113120042E351E060E070E0CB01D9D3C82F8130D4
S113121009F094C08091FB0281110EC08090F80205
S11312209090F902A090FA02B090FB0242E351E0E0
S1131230C501B401C4D303C0812C912C5401EAE14B
S1131240F1E085A1858BC6A0D7A0E12CF12CC18A41
S1131250D28AE38AF48A86A597A541A552A5440FAC
S1131260551F42955295507F5427407F5427415033
S11312705E4F452F5527469560E070E041155105B6
S113128061057105F1F424AD35AD46AD57AD8091DE
S11312905E0190915F01A0916001B091610181872D
S11312A09287A387B487A0A5B0E0DCD3C60ED71E6F
S11312B0E81EF91EC586D686E786F08A80E2868B0C
S11312C01EC0EAE1F1E0A0A5A89F9001A99F300DFE
S11312D01124C20ED31EE11CF11C4C0D5D1D6E1DAC
S11312E07F1D458756876787708BC80CD91CEA1CFD
S11312F0FB1CC186D286E386F48680E1868BEAE114
S1131300F1E081899289A389B489880D991DAA1D68
S1131310BB1D818B928BA38BB48B85859685A7850A
S1131320B089880E991EAA1EBB1E85869686A7863E
S1131330B08A158216821782108601C0C0E08C2FF5
S1131340CF91FF90EF90DF90CF90BF90AF909F90A0
S11313508F9008951DCB08950F931F93CF93DF9320
S1131360EC01162F15DB8130C9F4123759F50CE363
S113137013E0F801618972898389948973DBF80128
S1131380D787C68760913203709133038091340309
S1131390909135030E94870180E019C0811114C027
S11313A01336A1F4D0934B03C0934A0362E070E078
S11313B080E090E0CFDB60E2CE01A9DC81E08093A5
S11313C01E0105C082E003C082E001C082E0DF911B
S11313D0CF911F910F9108958F929F92AF92BF92D8
S11313E0CF92DF92EF92FF920F931F93CF93DF93ED
S11313F04B015C01CCE3D3E069897A898B899C89B0
S113140031DB409132035091330360913403709186
S113141035031A821B821C821D82811482E0980685
S1131420A104B104A8F1750164018E01C2E3D3E003
S1131430E2E0DE1AE108F108F80182819381A481D7
S1131440B5819E5FAF4FBF4F82839383A483B583DF
S11314508C819D8101979D838C83892B29F04F5F1B
S11314605F4F6F4F7F4F0AC06E817F81888599855A
S11314701BDAF8DA488159816A817B81C114F2E070
S1131480DF06E104F104A0F681E09822AA24BB243B
S1131490CB01BA010E94870190923D0380923C03E4
S11314A0DF91CF911F910F91FF90EF90DF90CF903C
S11314B0BF90AF909F908F900895CF93DF938091CA
S11314C03C0390913D038115924091F5E2E3F3E0F2
S11314D084819581019795838483892BC9F4CCE316
S11314E0D3E06E817F81888599850E942E02DCD9A4
S11314F0B9DA8091320390913303A0913403B0910F
S113150035030197A109B1098E839F83A887B98701
S1131510ECE3F3E01182108286819781A085B18586
S1131520BC01CD016F5F7F4F8F4F9F4F0E9487019A
S1131530ECE3F3E0808191819C012F5F3F4F318385
S11315402083FC01E65EFE4F808DDF91CF910895EC
S11315500F931F93CF93DF93009749F08B01EB0117
S1131560080F191FAADF8993C017D107D9F7DF9194
S1131570CF911F910F910895EF92FF920F931F93B4
S1131580CF93DF937B01009749F0EB01E80EF91E3E
S1131590870193DF8993C017D107D9F7F701108228
S11315A0DF91CF911F910F91FF90EF900895CF930A
S11315B0DF93CDB7DEB7E0970FB6F894DEBF0FBE6A
S11315C0CDBFD09A8D9A19A61AA61BA61CA61DA635
S11315D01EA61FA618AA0F2EF5E5CF2EF3E0DF2EC8
S11315E0F02D05EB16E0F60111821082128233967B
S11315F0E017F107C9F760E673E085E593E00E9420
S113160066002EE08FE196E3215080409040E1F7A0
S113161000C000C0E7D0811101C0FFCFE8DD811117
S113162001C0FFCF8DE091E095DE813009F086C0E6
S113163062E78DE091E090DEBE016F5F7F4F82E054
S113164090E09ADF82E49DE49E8B8D8B1F8ABE011D
S11316506B5E7F4FCE01019626D2892B09F06EC0B6
S11316606AE070E080E090E0B7DEBE01675D7F4F26
S113167084E090E06DDF62E170E080E090E0ACDE59
S1131680BE01635D7F4F84E090E062DF8DA59EA57F
S1131690AFA5B8A980329140A105B10509F04EC0AB
S11316A066E170E080E090E097DEBE01635D7F4F0D
S11316B084E090E04DDF69A57AA58BA59CA58CDE1E
S11316C08DA59EA5AFA5B8A9892B8A2B8B2B89F54F
S11316D035C0F3DE8695F7018283EFDE8695F70148
S11316E08083EBDE8695F7018183811107C08081B9
S11316F0811104C08281811101C0D89AF3E0EF0EF8
S1131700F11CE016F10629F760E673E085E593E045
S11317100E9466002FEF821A920AA20AB20A8DA5CD
S11317209EA5AFA5B8A988169906AA06BB0620F0FF
S113173005C0812C912C54017601CBCFF601118286
S113174010821282F3E0CF0ED11CC016D106B1F77D
S113175060E673E085E593E00E946600FFCF8FB9F1
S1131760779BFECF08958FEF8FB9779BFECF8FB114
S11317700895C09AF8CF0895FF920F931F93CF93C3
S1131780DF93C82FD42F152F062FF72EF2DFC09822
S1131790EADF8F3FE9F78C2F8064E1DF8F2DDFDFF5
S11317A0802FDDDF812FDBDF8D2FD9DFCC2389F084
S11317B0C83061F081E0D3DFCC3009F4D4DFCAE073
S11317C0D2DF88234CF4C150D9F706C087E8C7DFBD
S11317D0F6CF85E9C4DFF3CFDF91CF911F910F914D
S11317E0FF900895AF92BF92CF92DF92FF920F9332
S11317F01F93CF93DF9300D000D0CDB7DEB7BB9853
S1131800B99ABA9AB89A83E58DB9C09AB2DF04E658
S113181010E0A9DF01501109E1F704E610E0F12C12
S113182040E050E0BA0180E0A7DF813009F062C0F7
S11318304AEA51E060E070E088E09EDF8130C1F563
S1131840CE0101965C016E0195E0C90ED11C8501A3
S11318508ADFF80181938F01CE16DF06C9F78B81E9
S1131860813009F03BC08C818A3AC1F540E050E0F8
S1131870BA0187E381DF40E050E060E070E489E290
S11318807BDF8111F3CF40E050E0BA018AE374DFDB
S11318908111F9CF68DFF50181935F01CE16DF0670
S11318A0C9F7898186FD2BC06894FF24F2F819C01A
S11318B040E050E0BA0189E25FDF823020F0FF248B
S11318C0F39411E004C06894FF24F1F819E240E0B5
S11318D050E0BA01812F50DF8111F9CFFCE0FF16EF
S11318E091F040E052E060E070E080E145DF81117A
S11318F0F8CF09C00150110909F092CF04C00F2E8E
S1131900FCE0FF2EF02D0AE111E0F801F78A31DF47
S1131910F8018789882329F08DB18C7F8DB9709A5D
S113192081E00F900F900F900F90DF91CF911F9156
S11319300F91FF90DF90CF90BF90AF900895FF92EA
S11319400F931F93CF93DF938A012091310123FDDD
S113195009C0052E59E0660F771F881F991F5A95F5
S1131960D1F7502DAB01BC0188E106DFF82E8111BF
S11319701EC0F9DE8F3FE9F78EEFF1DEE8011E5F4E
S11319808991EDDEC017D107D9F78FEFE8DE8FEF2D
S1131990E6DEC4E1E8DE8F71853019F0C150D1F77D
S11319A007C0CC2329F0E5DEFF24F39401C0F12C19
S11319B08F2DDF91CF911F910F91FF9008950F9379
S11319C01F93CF93DF938A012091310123FD09C036
S11319D0052E59E0660F771F881F991F5A95D1F776
S11319E0502DAB01BC0181E1C7DEC82F811111C0AC
S11319F0BADE8F3FE9F38E3F69F4E8011E5FB3DE80
S1131A008993C017D107D9F7AEDEADDEB2DEC1E0EF
S1131A1001C0C0E08C2FDF91CF911F910F910895E9
S1131A20A1E21A2EAA1BBB1BFD010DC0AA1FBB1FDE
S1131A30EE1FFF1FA217B307E407F50720F0A21B50
S1131A40B30BE40BF50B661F771F881F991F1A94BD
S1131A5069F760957095809590959B01AC01BD01E7
S1131A60CF01089509D0A59F900DB49F900DA49F18
S1131A70800D911D11240895A29FB001B39FC00150
S1131A80A39F700D811D1124911DB29F700D811DA6
S1131A901124911D08959111089581568A5108F4D5
S1131AA0805285580895FB01DC018D9101908019C5
S10F1AB00110D9F3990B0895F894FFCFAE
S1131ABC01030507090E10121416181C1E74657305
S1091ACC742E626D70002F
S9030000FC
